{
  "_format": "hh-sol-artifact-1",
  "contractName": "Voting",
  "sourceName": "contracts/Voting.sol",
  "abi": [
    {
      "inputs": [],
      "stateMutability": "nonpayable",
      "type": "constructor"
    },
    {
      "anonymous": false,
      "inputs": [
        {
          "indexed": false,
          "internalType": "string",
          "name": "name",
          "type": "string"
        },
        {
          "indexed": false,
          "internalType": "uint256",
          "name": "candidateIndex",
          "type": "uint256"
        }
      ],
      "name": "CandidateAdded",
      "type": "event"
    },
    {
      "anonymous": false,
      "inputs": [
        {
          "indexed": false,
          "internalType": "address",
          "name": "voter",
          "type": "address"
        },
        {
          "indexed": false,
          "internalType": "uint256",
          "name": "candidateIndex",
          "type": "uint256"
        }
      ],
      "name": "VoteCast",
      "type": "event"
    },
    {
      "anonymous": false,
      "inputs": [
        {
          "indexed": false,
          "internalType": "string",
          "name": "winner",
          "type": "string"
        }
      ],
      "name": "VotingEnded",
      "type": "event"
    },
    {
      "inputs": [
        {
          "internalType": "string",
          "name": "name",
          "type": "string"
        }
      ],
      "name": "addCandidate",
      "outputs": [],
      "stateMutability": "nonpayable",
      "type": "function"
    },
    {
      "inputs": [
        {
          "internalType": "uint256",
          "name": "",
          "type": "uint256"
        }
      ],
      "name": "candidates",
      "outputs": [
        {
          "internalType": "string",
          "name": "name",
          "type": "string"
        },
        {
          "internalType": "uint256",
          "name": "voteCount",
          "type": "uint256"
        }
      ],
      "stateMutability": "view",
      "type": "function"
    },
    {
      "inputs": [],
      "name": "endVoting",
      "outputs": [],
      "stateMutability": "nonpayable",
      "type": "function"
    },
    {
      "inputs": [],
      "name": "getCandidateCount",
      "outputs": [
        {
          "internalType": "uint256",
          "name": "",
          "type": "uint256"
        }
      ],
      "stateMutability": "view",
      "type": "function"
    },
    {
      "inputs": [],
      "name": "getCandidates",
      "outputs": [
        {
          "components": [
            {
              "internalType": "string",
              "name": "name",
              "type": "string"
            },
            {
              "internalType": "uint256",
              "name": "voteCount",
              "type": "uint256"
            }
          ],
          "internalType": "struct Voting.Candidate[]",
          "name": "",
          "type": "tuple[]"
        }
      ],
      "stateMutability": "view",
      "type": "function"
    },
    {
      "inputs": [],
      "name": "getVotingStatus",
      "outputs": [
        {
          "internalType": "bool",
          "name": "",
          "type": "bool"
        }
      ],
      "stateMutability": "view",
      "type": "function"
    },
    {
      "inputs": [],
      "name": "getWinner",
      "outputs": [
        {
          "internalType": "string",
          "name": "",
          "type": "string"
        }
      ],
      "stateMutability": "view",
      "type": "function"
    },
    {
      "inputs": [
        {
          "internalType": "address",
          "name": "",
          "type": "address"
        }
      ],
      "name": "hasVoted",
      "outputs": [
        {
          "internalType": "bool",
          "name": "",
          "type": "bool"
        }
      ],
      "stateMutability": "view",
      "type": "function"
    },
    {
      "inputs": [],
      "name": "owner",
      "outputs": [
        {
          "internalType": "address",
          "name": "",
          "type": "address"
        }
      ],
      "stateMutability": "view",
      "type": "function"
    },
    {
      "inputs": [
        {
          "internalType": "uint256",
          "name": "candidateIndex",
          "type": "uint256"
        }
      ],
      "name": "vote",
      "outputs": [],
      "stateMutability": "nonpayable",
      "type": "function"
    },
    {
      "inputs": [],
      "name": "votingEnded",
      "outputs": [
        {
          "internalType": "bool",
          "name": "",
          "type": "bool"
        }
      ],
      "stateMutability": "view",
      "type": "function"
    }
  ],
  "bytecode": "0x608060405234801561001057600080fd5b50336000806101000a81548173ffffffffffffffffffffffffffffffffffffffff021916908373ffffffffffffffffffffffffffffffffffffffff16021790555061180b806100606000396000f3fe608060405234801561001057600080fd5b50600436106100a95760003560e01c8063462e91ec11610071578063462e91ec14610167578063581c281c146101835780638da5cb5b146101a15780638e7ea5b2146101bf5780639d5a0529146101dd578063c3403ddf146101fb576100a9565b80630121b93f146100ae57806306a49fce146100ca57806309eef43e146100e857806330a56347146101185780633477ee2e14610136575b600080fd5b6100c860048036038101906100c39190610b52565b610205565b005b6100d26103f8565b6040516100df9190610d1d565b60405180910390f35b61010260048036038101906100fd9190610d9d565b6104f3565b60405161010f9190610de5565b60405180910390f35b610120610513565b60405161012d9190610e0f565b60405180910390f35b610150600480360381019061014b9190610b52565b610520565b60405161015e929190610e74565b60405180910390f35b610181600480360381019061017c9190610fd9565b6105dc565b005b61018b6107ad565b6040516101989190610de5565b60405180910390f35b6101a96107c4565b6040516101b69190611031565b60405180910390f35b6101c76107e8565b6040516101d4919061104c565b60405180910390f35b6101e56109b6565b6040516101f29190610de5565b60405180910390f35b6102036109c9565b005b600360009054906101000a900460ff1615610255576040517f08c379a000000000000000000000000000000000000000000000000000000000815260040161024c906110ba565b60405180910390fd5b600260003373ffffffffffffffffffffffffffffffffffffffff1673ffffffffffffffffffffffffffffffffffffffff16815260200190815260200160002060009054906101000a900460ff16156102e2576040517f08c379a00000000000000000000000000000000000000000000000000000000081526004016102d990611126565b60405180910390fd5b6001805490508110610329576040517f08c379a000000000000000000000000000000000000000000000000000000000815260040161032090611192565b60405180910390fd5b6001600260003373ffffffffffffffffffffffffffffffffffffffff1673ffffffffffffffffffffffffffffffffffffffff16815260200190815260200160002060006101000a81548160ff02191690831515021790555060018181548110610395576103946111b2565b5b906000526020600020906002020160010160008154809291906103b790611210565b91905055507fa36cc2bebb74db33e9f88110a07ef56e1b31b24b4c4f51b54b1664266e29f45b33826040516103ed929190611258565b60405180910390a150565b60606001805480602002602001604051908101604052809291908181526020016000905b828210156104ea578382906000526020600020906002020160405180604001604052908160008201805461044f906112b0565b80601f016020809104026020016040519081016040528092919081815260200182805461047b906112b0565b80156104c85780601f1061049d576101008083540402835291602001916104c8565b820191906000526020600020905b8154815290600101906020018083116104ab57829003601f168201915b505050505081526020016001820154815250508152602001906001019061041c565b50505050905090565b60026020528060005260406000206000915054906101000a900460ff1681565b6000600180549050905090565b6001818154811061053057600080fd5b9060005260206000209060020201600091509050806000018054610553906112b0565b80601f016020809104026020016040519081016040528092919081815260200182805461057f906112b0565b80156105cc5780601f106105a1576101008083540402835291602001916105cc565b820191906000526020600020905b8154815290600101906020018083116105af57829003601f168201915b5050505050908060010154905082565b60008054906101000a900473ffffffffffffffffffffffffffffffffffffffff1673ffffffffffffffffffffffffffffffffffffffff163373ffffffffffffffffffffffffffffffffffffffff161461066a576040517f08c379a000000000000000000000000000000000000000000000000000000000815260040161066190611353565b60405180910390fd5b600360009054906101000a900460ff16156106ba576040517f08c379a00000000000000000000000000000000000000000000000000000000081526004016106b1906110ba565b60405180910390fd5b60008151116106fe576040517f08c379a00000000000000000000000000000000000000000000000000000000081526004016106f5906113bf565b60405180910390fd5b60016040518060400160405280838152602001600081525090806001815401808255809150506001900390600052602060002090600202016000909190919091506000820151816000019081610754919061158b565b506020820151816001015550507fa89e28469fa9e15d5149634a9ce8d8dd59ec42c18ba2d281b08c305f2095acef8160018080549050610794919061165d565b6040516107a2929190610e74565b60405180910390a150565b6000600360009054906101000a900460ff16905090565b60008054906101000a900473ffffffffffffffffffffffffffffffffffffffff1681565b6060600360009054906101000a900460ff16610839576040517f08c379a0000000000000000000000000000000000000000000000000000000008152600401610830906116dd565b60405180910390fd5b600060018054905011610881576040517f08c379a000000000000000000000000000000000000000000000000000000000815260040161087890611749565b60405180910390fd5b60008060005b6001805490508110156109005782600182815481106108a9576108a86111b2565b5b90600052602060002090600202016001015411156108ed57600181815481106108d5576108d46111b2565b5b90600052602060002090600202016001015492508091505b80806108f890611210565b915050610887565b5060018181548110610915576109146111b2565b5b90600052602060002090600202016000018054610931906112b0565b80601f016020809104026020016040519081016040528092919081815260200182805461095d906112b0565b80156109aa5780601f1061097f576101008083540402835291602001916109aa565b820191906000526020600020905b81548152906001019060200180831161098d57829003601f168201915b50505050509250505090565b600360009054906101000a900460ff1681565b60008054906101000a900473ffffffffffffffffffffffffffffffffffffffff1673ffffffffffffffffffffffffffffffffffffffff163373ffffffffffffffffffffffffffffffffffffffff1614610a57576040517f08c379a0000000000000000000000000000000000000000000000000000000008152600401610a4e90611353565b60405180910390fd5b600360009054906101000a900460ff1615610aa7576040517f08c379a0000000000000000000000000000000000000000000000000000000008152600401610a9e906117b5565b60405180910390fd5b6001600360006101000a81548160ff0219169083151502179055506000610acc6107e8565b90507f74e0b2978c99ca20b757f0f8b458fc435f508ea64c542132a673e898b96f535d81604051610afd919061104c565b60405180910390a150565b6000604051905090565b600080fd5b600080fd5b6000819050919050565b610b2f81610b1c565b8114610b3a57600080fd5b50565b600081359050610b4c81610b26565b92915050565b600060208284031215610b6857610b67610b12565b5b6000610b7684828501610b3d565b91505092915050565b600081519050919050565b600082825260208201905092915050565b6000819050602082019050919050565b600081519050919050565b600082825260208201905092915050565b60005b83811015610be5578082015181840152602081019050610bca565b60008484015250505050565b6000601f19601f8301169050919050565b6000610c0d82610bab565b610c178185610bb6565b9350610c27818560208601610bc7565b610c3081610bf1565b840191505092915050565b610c4481610b1c565b82525050565b60006040830160008301518482036000860152610c678282610c02565b9150506020830151610c7c6020860182610c3b565b508091505092915050565b6000610c938383610c4a565b905092915050565b6000602082019050919050565b6000610cb382610b7f565b610cbd8185610b8a565b935083602082028501610ccf85610b9b565b8060005b85811015610d0b5784840389528151610cec8582610c87565b9450610cf783610c9b565b925060208a01995050600181019050610cd3565b50829750879550505050505092915050565b60006020820190508181036000830152610d378184610ca8565b905092915050565b600073ffffffffffffffffffffffffffffffffffffffff82169050919050565b6000610d6a82610d3f565b9050919050565b610d7a81610d5f565b8114610d8557600080fd5b50565b600081359050610d9781610d71565b92915050565b600060208284031215610db357610db2610b12565b5b6000610dc184828501610d88565b91505092915050565b60008115159050919050565b610ddf81610dca565b82525050565b6000602082019050610dfa6000830184610dd6565b92915050565b610e0981610b1c565b82525050565b6000602082019050610e246000830184610e00565b92915050565b600082825260208201905092915050565b6000610e4682610bab565b610e508185610e2a565b9350610e60818560208601610bc7565b610e6981610bf1565b840191505092915050565b60006040820190508181036000830152610e8e8185610e3b565b9050610e9d6020830184610e00565b9392505050565b600080fd5b600080fd5b7f4e487b7100000000000000000000000000000000000000000000000000000000600052604160045260246000fd5b610ee682610bf1565b810181811067ffffffffffffffff82111715610f0557610f04610eae565b5b80604052505050565b6000610f18610b08565b9050610f248282610edd565b919050565b600067ffffffffffffffff821115610f4457610f43610eae565b5b610f4d82610bf1565b9050602081019050919050565b82818337600083830152505050565b6000610f7c610f7784610f29565b610f0e565b905082815260208101848484011115610f9857610f97610ea9565b5b610fa3848285610f5a565b509392505050565b600082601f830112610fc057610fbf610ea4565b5b8135610fd0848260208601610f69565b91505092915050565b600060208284031215610fef57610fee610b12565b5b600082013567ffffffffffffffff81111561100d5761100c610b17565b5b61101984828501610fab565b91505092915050565b61102b81610d5f565b82525050565b60006020820190506110466000830184611022565b92915050565b600060208201905081810360008301526110668184610e3b565b905092915050565b7f566f74696e672068617320656e64656400000000000000000000000000000000600082015250565b60006110a4601083610e2a565b91506110af8261106e565b602082019050919050565b600060208201905081810360008301526110d381611097565b9050919050565b7f596f75206861766520616c726561647920766f74656400000000000000000000600082015250565b6000611110601683610e2a565b915061111b826110da565b602082019050919050565b6000602082019050818103600083015261113f81611103565b9050919050565b7f496e76616c69642063616e64696461746520696e646578000000000000000000600082015250565b600061117c601783610e2a565b915061118782611146565b602082019050919050565b600060208201905081810360008301526111ab8161116f565b9050919050565b7f4e487b7100000000000000000000000000000000000000000000000000000000600052603260045260246000fd5b7f4e487b7100000000000000000000000000000000000000000000000000000000600052601160045260246000fd5b600061121b82610b1c565b91507fffffffffffffffffffffffffffffffffffffffffffffffffffffffffffffffff820361124d5761124c6111e1565b5b600182019050919050565b600060408201905061126d6000830185611022565b61127a6020830184610e00565b9392505050565b7f4e487b7100000000000000000000000000000000000000000000000000000000600052602260045260246000fd5b600060028204905060018216806112c857607f821691505b6020821081036112db576112da611281565b5b50919050565b7f4f6e6c7920746865206f776e65722063616e20706572666f726d20746869732060008201527f616374696f6e0000000000000000000000000000000000000000000000000000602082015250565b600061133d602683610e2a565b9150611348826112e1565b604082019050919050565b6000602082019050818103600083015261136c81611330565b9050919050565b7f43616e646964617465206e616d652063616e6e6f7420626520656d7074790000600082015250565b60006113a9601e83610e2a565b91506113b482611373565b602082019050919050565b600060208201905081810360008301526113d88161139c565b9050919050565b60008190508160005260206000209050919050565b60006020601f8301049050919050565b600082821b905092915050565b6000600883026114417fffffffffffffffffffffffffffffffffffffffffffffffffffffffffffffffff82611404565b61144b8683611404565b95508019841693508086168417925050509392505050565b6000819050919050565b600061148861148361147e84610b1c565b611463565b610b1c565b9050919050565b6000819050919050565b6114a28361146d565b6114b66114ae8261148f565b848454611411565b825550505050565b600090565b6114cb6114be565b6114d6818484611499565b505050565b5b818110156114fa576114ef6000826114c3565b6001810190506114dc565b5050565b601f82111561153f57611510816113df565b611519846113f4565b81016020851015611528578190505b61153c611534856113f4565b8301826114db565b50505b505050565b600082821c905092915050565b600061156260001984600802611544565b1980831691505092915050565b600061157b8383611551565b9150826002028217905092915050565b61159482610bab565b67ffffffffffffffff8111156115ad576115ac610eae565b5b6115b782546112b0565b6115c28282856114fe565b600060209050601f8311600181146115f557600084156115e3578287015190505b6115ed858261156f565b865550611655565b601f198416611603866113df565b60005b8281101561162b57848901518255600182019150602085019450602081019050611606565b868310156116485784890151611644601f891682611551565b8355505b6001600288020188555050505b505050505050565b600061166882610b1c565b915061167383610b1c565b925082820390508181111561168b5761168a6111e1565b5b92915050565b7f566f74696e6720686173206e6f7420656e646564207965740000000000000000600082015250565b60006116c7601883610e2a565b91506116d282611691565b602082019050919050565b600060208201905081810360008301526116f6816116ba565b9050919050565b7f4e6f2063616e6469646174657320617661696c61626c65000000000000000000600082015250565b6000611733601783610e2a565b915061173e826116fd565b602082019050919050565b6000602082019050818103600083015261176281611726565b9050919050565b7f566f74696e672068617320616c726561647920656e6465640000000000000000600082015250565b600061179f601883610e2a565b91506117aa82611769565b602082019050919050565b600060208201905081810360008301526117ce81611792565b905091905056fea26469706673582212201860bc09db5d98b3a013975893f3aa851b5631465296f360f6caf62d03c1e83c64736f6c63430008130033",
  "linkReferences": {},
  "deployedLinkReferences": {}
}