{
  "_format": "hh-sol-artifact-1",
  "contractName": "Voting",
  "sourceName": "contracts/Voting.sol",
  "abi": [
    {
      "inputs": [],
      "stateMutability": "nonpayable",
      "type": "constructor"
    },
    {
      "anonymous": false,
      "inputs": [
        {
          "indexed": false,
          "internalType": "string",
          "name": "name",
          "type": "string"
        },
        {
          "indexed": false,
          "internalType": "uint256",
          "name": "candidateIndex",
          "type": "uint256"
        }
      ],
      "name": "CandidateAdded",
      "type": "event"
    },
    {
      "anonymous": false,
      "inputs": [
        {
          "indexed": false,
          "internalType": "address",
          "name": "voter",
          "type": "address"
        },
        {
          "indexed": false,
          "internalType": "uint256",
          "name": "candidateIndex",
          "type": "uint256"
        }
      ],
      "name": "VoteCast",
      "type": "event"
    },
    {
      "anonymous": false,
      "inputs": [
        {
          "indexed": false,
          "internalType": "string",
          "name": "winner",
          "type": "string"
        }
      ],
      "name": "VotingEnded",
      "type": "event"
    },
    {
      "anonymous": false,
      "inputs": [],
      "name": "VotingReset",
      "type": "event"
    },
    {
      "anonymous": false,
      "inputs": [],
      "name": "VotingStarted",
      "type": "event"
    },
    {
      "inputs": [
        {
          "internalType": "string",
          "name": "name",
          "type": "string"
        }
      ],
      "name": "addCandidate",
      "outputs": [],
      "stateMutability": "nonpayable",
      "type": "function"
    },
    {
      "inputs": [
        {
          "internalType": "uint256",
          "name": "",
          "type": "uint256"
        }
      ],
      "name": "candidates",
      "outputs": [
        {
          "internalType": "string",
          "name": "name",
          "type": "string"
        },
        {
          "internalType": "uint256",
          "name": "voteCount",
          "type": "uint256"
        }
      ],
      "stateMutability": "view",
      "type": "function"
    },
    {
      "inputs": [],
      "name": "currentVotingRound",
      "outputs": [
        {
          "internalType": "uint256",
          "name": "",
          "type": "uint256"
        }
      ],
      "stateMutability": "view",
      "type": "function"
    },
    {
      "inputs": [],
      "name": "endVoting",
      "outputs": [],
      "stateMutability": "nonpayable",
      "type": "function"
    },
    {
      "inputs": [],
      "name": "getCandidateCount",
      "outputs": [
        {
          "internalType": "uint256",
          "name": "",
          "type": "uint256"
        }
      ],
      "stateMutability": "view",
      "type": "function"
    },
    {
      "inputs": [],
      "name": "getCandidates",
      "outputs": [
        {
          "components": [
            {
              "internalType": "string",
              "name": "name",
              "type": "string"
            },
            {
              "internalType": "uint256",
              "name": "voteCount",
              "type": "uint256"
            }
          ],
          "internalType": "struct Voting.Candidate[]",
          "name": "",
          "type": "tuple[]"
        }
      ],
      "stateMutability": "view",
      "type": "function"
    },
    {
      "inputs": [],
      "name": "getCurrentVotingRound",
      "outputs": [
        {
          "internalType": "uint256",
          "name": "",
          "type": "uint256"
        }
      ],
      "stateMutability": "view",
      "type": "function"
    },
    {
      "inputs": [],
      "name": "getVotingStatus",
      "outputs": [
        {
          "internalType": "bool",
          "name": "",
          "type": "bool"
        }
      ],
      "stateMutability": "view",
      "type": "function"
    },
    {
      "inputs": [],
      "name": "getWinner",
      "outputs": [
        {
          "internalType": "string",
          "name": "",
          "type": "string"
        }
      ],
      "stateMutability": "view",
      "type": "function"
    },
    {
      "inputs": [
        {
          "internalType": "address",
          "name": "",
          "type": "address"
        }
      ],
      "name": "lastVotingRound",
      "outputs": [
        {
          "internalType": "uint256",
          "name": "",
          "type": "uint256"
        }
      ],
      "stateMutability": "view",
      "type": "function"
    },
    {
      "inputs": [],
      "name": "owner",
      "outputs": [
        {
          "internalType": "address",
          "name": "",
          "type": "address"
        }
      ],
      "stateMutability": "view",
      "type": "function"
    },
    {
      "inputs": [],
      "name": "resetVoting",
      "outputs": [],
      "stateMutability": "nonpayable",
      "type": "function"
    },
    {
      "inputs": [],
      "name": "startVoting",
      "outputs": [],
      "stateMutability": "nonpayable",
      "type": "function"
    },
    {
      "inputs": [
        {
          "internalType": "uint256",
          "name": "candidateIndex",
          "type": "uint256"
        }
      ],
      "name": "vote",
      "outputs": [],
      "stateMutability": "nonpayable",
      "type": "function"
    },
    {
      "inputs": [],
      "name": "votingEnded",
      "outputs": [
        {
          "internalType": "bool",
          "name": "",
          "type": "bool"
        }
      ],
      "stateMutability": "view",
      "type": "function"
    }
  ],
  "bytecode": "0x608060405234801561001057600080fd5b50336000806101000a81548173ffffffffffffffffffffffffffffffffffffffff021916908373ffffffffffffffffffffffffffffffffffffffff1602179055506001600381905550611b89806100686000396000f3fe608060405234801561001057600080fd5b50600436106100f55760003560e01c8063856e698c116100975780639d5a0529116100665780639d5a05291461022b578063c2fb6a1f14610249578063c3403ddf14610267578063cd56f74514610271576100f5565b8063856e698c146101c75780638da5cb5b146101d15780638e7ea5b2146101ef57806397bc9d341461020d576100f5565b806330a56347116100d357806330a563471461013e5780633477ee2e1461015c578063462e91ec1461018d578063581c281c146101a9576100f5565b80630121b93f146100fa57806306a49fce146101165780631ec6b60a14610134575b600080fd5b610114600480360381019061010f9190610e3e565b6102a1565b005b61011e610478565b60405161012b9190611009565b60405180910390f35b61013c610573565b005b610146610699565b604051610153919061103a565b60405180910390f35b61017660048036038101906101719190610e3e565b6106a6565b60405161018492919061109f565b60405180910390f35b6101a760048036038101906101a29190611204565b610762565b005b6101b1610933565b6040516101be9190611268565b60405180910390f35b6101cf61094a565b005b6101d9610a88565b6040516101e691906112c4565b60405180910390f35b6101f7610aac565b60405161020491906112df565b60405180910390f35b610215610c7a565b604051610222919061103a565b60405180910390f35b610233610c84565b6040516102409190611268565b60405180910390f35b610251610c97565b60405161025e919061103a565b60405180910390f35b61026f610c9d565b005b61028b6004803603810190610286919061132d565b610ddc565b604051610298919061103a565b60405180910390f35b600460009054906101000a900460ff16156102f1576040517f08c379a00000000000000000000000000000000000000000000000000000000081526004016102e8906113a6565b60405180910390fd5b600354600260003373ffffffffffffffffffffffffffffffffffffffff1673ffffffffffffffffffffffffffffffffffffffff1681526020019081526020016000205403610374576040517f08c379a000000000000000000000000000000000000000000000000000000000815260040161036b90611438565b60405180910390fd5b60018054905081106103bb576040517f08c379a00000000000000000000000000000000000000000000000000000000081526004016103b2906114a4565b60405180910390fd5b600354600260003373ffffffffffffffffffffffffffffffffffffffff1673ffffffffffffffffffffffffffffffffffffffff1681526020019081526020016000208190555060018181548110610415576104146114c4565b5b9060005260206000209060020201600101600081548092919061043790611522565b91905055507fa36cc2bebb74db33e9f88110a07ef56e1b31b24b4c4f51b54b1664266e29f45b338260405161046d92919061156a565b60405180910390a150565b60606001805480602002602001604051908101604052809291908181526020016000905b8282101561056a57838290600052602060002090600202016040518060400160405290816000820180546104cf906115c2565b80601f01602080910402602001604051908101604052809291908181526020018280546104fb906115c2565b80156105485780601f1061051d57610100808354040283529160200191610548565b820191906000526020600020905b81548152906001019060200180831161052b57829003601f168201915b505050505081526020016001820154815250508152602001906001019061049c565b50505050905090565b60008054906101000a900473ffffffffffffffffffffffffffffffffffffffff1673ffffffffffffffffffffffffffffffffffffffff163373ffffffffffffffffffffffffffffffffffffffff1614610601576040517f08c379a00000000000000000000000000000000000000000000000000000000081526004016105f890611665565b60405180910390fd5b600460009054906101000a900460ff16610650576040517f08c379a0000000000000000000000000000000000000000000000000000000008152600401610647906116d1565b60405180910390fd5b6000600460006101000a81548160ff0219169083151502179055507f877e2548498f42b7975a186b94ef1d32c86d420b7b806dd2be2bea293b89590460405160405180910390a1565b6000600180549050905090565b600181815481106106b657600080fd5b90600052602060002090600202016000915090508060000180546106d9906115c2565b80601f0160208091040260200160405190810160405280929190818152602001828054610705906115c2565b80156107525780601f1061072757610100808354040283529160200191610752565b820191906000526020600020905b81548152906001019060200180831161073557829003601f168201915b5050505050908060010154905082565b60008054906101000a900473ffffffffffffffffffffffffffffffffffffffff1673ffffffffffffffffffffffffffffffffffffffff163373ffffffffffffffffffffffffffffffffffffffff16146107f0576040517f08c379a00000000000000000000000000000000000000000000000000000000081526004016107e790611665565b60405180910390fd5b600460009054906101000a900460ff1615610840576040517f08c379a0000000000000000000000000000000000000000000000000000000008152600401610837906113a6565b60405180910390fd5b6000815111610884576040517f08c379a000000000000000000000000000000000000000000000000000000000815260040161087b9061173d565b60405180910390fd5b600160405180604001604052808381526020016000815250908060018154018082558091505060019003906000526020600020906002020160009091909190915060008201518160000190816108da9190611909565b506020820151816001015550507fa89e28469fa9e15d5149634a9ce8d8dd59ec42c18ba2d281b08c305f2095acef816001808054905061091a91906119db565b60405161092892919061109f565b60405180910390a150565b6000600460009054906101000a900460ff16905090565b60008054906101000a900473ffffffffffffffffffffffffffffffffffffffff1673ffffffffffffffffffffffffffffffffffffffff163373ffffffffffffffffffffffffffffffffffffffff16146109d8576040517f08c379a00000000000000000000000000000000000000000000000000000000081526004016109cf90611665565b60405180910390fd5b60005b600180549050811015610a26576000600182815481106109fe576109fd6114c4565b5b9060005260206000209060020201600101819055508080610a1e90611522565b9150506109db565b5060036000815480929190610a3a90611522565b91905055506000600460006101000a81548160ff0219169083151502179055507feb4b0a76799cb305ae86d5a0b30e0e77b1e23fa8cb85eb788ede212bd6b324a660405160405180910390a1565b60008054906101000a900473ffffffffffffffffffffffffffffffffffffffff1681565b6060600460009054906101000a900460ff16610afd576040517f08c379a0000000000000000000000000000000000000000000000000000000008152600401610af490611a5b565b60405180910390fd5b600060018054905011610b45576040517f08c379a0000000000000000000000000000000000000000000000000000000008152600401610b3c90611ac7565b60405180910390fd5b60008060005b600180549050811015610bc4578260018281548110610b6d57610b6c6114c4565b5b9060005260206000209060020201600101541115610bb15760018181548110610b9957610b986114c4565b5b90600052602060002090600202016001015492508091505b8080610bbc90611522565b915050610b4b565b5060018181548110610bd957610bd86114c4565b5b90600052602060002090600202016000018054610bf5906115c2565b80601f0160208091040260200160405190810160405280929190818152602001828054610c21906115c2565b8015610c6e5780601f10610c4357610100808354040283529160200191610c6e565b820191906000526020600020905b815481529060010190602001808311610c5157829003601f168201915b50505050509250505090565b6000600354905090565b600460009054906101000a900460ff1681565b60035481565b60008054906101000a900473ffffffffffffffffffffffffffffffffffffffff1673ffffffffffffffffffffffffffffffffffffffff163373ffffffffffffffffffffffffffffffffffffffff1614610d2b576040517f08c379a0000000000000000000000000000000000000000000000000000000008152600401610d2290611665565b60405180910390fd5b600460009054906101000a900460ff1615610d7b576040517f08c379a0000000000000000000000000000000000000000000000000000000008152600401610d7290611b33565b60405180910390fd5b6001600460006101000a81548160ff0219169083151502179055506000610da0610aac565b90507f74e0b2978c99ca20b757f0f8b458fc435f508ea64c542132a673e898b96f535d81604051610dd191906112df565b60405180910390a150565b60026020528060005260406000206000915090505481565b6000604051905090565b600080fd5b600080fd5b6000819050919050565b610e1b81610e08565b8114610e2657600080fd5b50565b600081359050610e3881610e12565b92915050565b600060208284031215610e5457610e53610dfe565b5b6000610e6284828501610e29565b91505092915050565b600081519050919050565b600082825260208201905092915050565b6000819050602082019050919050565b600081519050919050565b600082825260208201905092915050565b60005b83811015610ed1578082015181840152602081019050610eb6565b60008484015250505050565b6000601f19601f8301169050919050565b6000610ef982610e97565b610f038185610ea2565b9350610f13818560208601610eb3565b610f1c81610edd565b840191505092915050565b610f3081610e08565b82525050565b60006040830160008301518482036000860152610f538282610eee565b9150506020830151610f686020860182610f27565b508091505092915050565b6000610f7f8383610f36565b905092915050565b6000602082019050919050565b6000610f9f82610e6b565b610fa98185610e76565b935083602082028501610fbb85610e87565b8060005b85811015610ff75784840389528151610fd88582610f73565b9450610fe383610f87565b925060208a01995050600181019050610fbf565b50829750879550505050505092915050565b600060208201905081810360008301526110238184610f94565b905092915050565b61103481610e08565b82525050565b600060208201905061104f600083018461102b565b92915050565b600082825260208201905092915050565b600061107182610e97565b61107b8185611055565b935061108b818560208601610eb3565b61109481610edd565b840191505092915050565b600060408201905081810360008301526110b98185611066565b90506110c8602083018461102b565b9392505050565b600080fd5b600080fd5b7f4e487b7100000000000000000000000000000000000000000000000000000000600052604160045260246000fd5b61111182610edd565b810181811067ffffffffffffffff821117156111305761112f6110d9565b5b80604052505050565b6000611143610df4565b905061114f8282611108565b919050565b600067ffffffffffffffff82111561116f5761116e6110d9565b5b61117882610edd565b9050602081019050919050565b82818337600083830152505050565b60006111a76111a284611154565b611139565b9050828152602081018484840111156111c3576111c26110d4565b5b6111ce848285611185565b509392505050565b600082601f8301126111eb576111ea6110cf565b5b81356111fb848260208601611194565b91505092915050565b60006020828403121561121a57611219610dfe565b5b600082013567ffffffffffffffff81111561123857611237610e03565b5b611244848285016111d6565b91505092915050565b60008115159050919050565b6112628161124d565b82525050565b600060208201905061127d6000830184611259565b92915050565b600073ffffffffffffffffffffffffffffffffffffffff82169050919050565b60006112ae82611283565b9050919050565b6112be816112a3565b82525050565b60006020820190506112d960008301846112b5565b92915050565b600060208201905081810360008301526112f98184611066565b905092915050565b61130a816112a3565b811461131557600080fd5b50565b60008135905061132781611301565b92915050565b60006020828403121561134357611342610dfe565b5b600061135184828501611318565b91505092915050565b7f566f74696e672068617320656e64656400000000000000000000000000000000600082015250565b6000611390601083611055565b915061139b8261135a565b602082019050919050565b600060208201905081810360008301526113bf81611383565b9050919050565b7f596f75206861766520616c726561647920766f74656420696e2074686973207260008201527f6f756e6400000000000000000000000000000000000000000000000000000000602082015250565b6000611422602483611055565b915061142d826113c6565b604082019050919050565b6000602082019050818103600083015261145181611415565b9050919050565b7f496e76616c69642063616e64696461746520696e646578000000000000000000600082015250565b600061148e601783611055565b915061149982611458565b602082019050919050565b600060208201905081810360008301526114bd81611481565b9050919050565b7f4e487b7100000000000000000000000000000000000000000000000000000000600052603260045260246000fd5b7f4e487b7100000000000000000000000000000000000000000000000000000000600052601160045260246000fd5b600061152d82610e08565b91507fffffffffffffffffffffffffffffffffffffffffffffffffffffffffffffffff820361155f5761155e6114f3565b5b600182019050919050565b600060408201905061157f60008301856112b5565b61158c602083018461102b565b9392505050565b7f4e487b7100000000000000000000000000000000000000000000000000000000600052602260045260246000fd5b600060028204905060018216806115da57607f821691505b6020821081036115ed576115ec611593565b5b50919050565b7f4f6e6c7920746865206f776e65722063616e20706572666f726d20746869732060008201527f616374696f6e0000000000000000000000000000000000000000000000000000602082015250565b600061164f602683611055565b915061165a826115f3565b604082019050919050565b6000602082019050818103600083015261167e81611642565b9050919050565b7f566f74696e6720697320616c7265616479206163746976650000000000000000600082015250565b60006116bb601883611055565b91506116c682611685565b602082019050919050565b600060208201905081810360008301526116ea816116ae565b9050919050565b7f43616e646964617465206e616d652063616e6e6f7420626520656d7074790000600082015250565b6000611727601e83611055565b9150611732826116f1565b602082019050919050565b600060208201905081810360008301526117568161171a565b9050919050565b60008190508160005260206000209050919050565b60006020601f8301049050919050565b600082821b905092915050565b6000600883026117bf7fffffffffffffffffffffffffffffffffffffffffffffffffffffffffffffffff82611782565b6117c98683611782565b95508019841693508086168417925050509392505050565b6000819050919050565b60006118066118016117fc84610e08565b6117e1565b610e08565b9050919050565b6000819050919050565b611820836117eb565b61183461182c8261180d565b84845461178f565b825550505050565b600090565b61184961183c565b611854818484611817565b505050565b5b818110156118785761186d600082611841565b60018101905061185a565b5050565b601f8211156118bd5761188e8161175d565b61189784611772565b810160208510156118a6578190505b6118ba6118b285611772565b830182611859565b50505b505050565b600082821c905092915050565b60006118e0600019846008026118c2565b1980831691505092915050565b60006118f983836118cf565b9150826002028217905092915050565b61191282610e97565b67ffffffffffffffff81111561192b5761192a6110d9565b5b61193582546115c2565b61194082828561187c565b600060209050601f8311600181146119735760008415611961578287015190505b61196b85826118ed565b8655506119d3565b601f1984166119818661175d565b60005b828110156119a957848901518255600182019150602085019450602081019050611984565b868310156119c657848901516119c2601f8916826118cf565b8355505b6001600288020188555050505b505050505050565b60006119e682610e08565b91506119f183610e08565b9250828203905081811115611a0957611a086114f3565b5b92915050565b7f566f74696e6720686173206e6f7420656e646564207965740000000000000000600082015250565b6000611a45601883611055565b9150611a5082611a0f565b602082019050919050565b60006020820190508181036000830152611a7481611a38565b9050919050565b7f4e6f2063616e6469646174657320617661696c61626c65000000000000000000600082015250565b6000611ab1601783611055565b9150611abc82611a7b565b602082019050919050565b60006020820190508181036000830152611ae081611aa4565b9050919050565b7f566f74696e672068617320616c726561647920656e6465640000000000000000600082015250565b6000611b1d601883611055565b9150611b2882611ae7565b602082019050919050565b60006020820190508181036000830152611b4c81611b10565b905091905056fea26469706673582212203e28181c34df3c238089a6e5aa8a7f5a426190dd9e2c571666b0137c8219529b64736f6c63430008130033",
  "linkReferences": {},
  "deployedLinkReferences": {}
}